:020000040800F2
:10000000285F002065030008EF4200083B3D000820
:100010006D420008D10A0008A95F00080000000036
:10002000000000000000000000000000A502000821
:10003000F10F00080000000001030008ED46000871
:100040007F0300087F0300087F0300087F03000888
:100050007F0300087F0300087F0300087F03000878
:100060007F0300087F0300087F0300088D0E00084F
:10007000990E00087F030008A50E0008B10E0008C5
:100080007F0300087F0300087F0300087F03000848
:10009000D50A00087F0300087F0300087F030008DB
:1000A000CD470008E94700087F0300087F030008E8
:1000B000F54700087F0300087F0300087F0300085E
:1000C0007F0300087F0300087F0300087F03000808
:1000D0007F0300087F0300087F0300089D4E00088F
:1000E0007F0300087F0300087F0300080148000821
:1000F0000D4800087F0300087F030008BD0E0008BC
:100100007F0300087F0300087F0300087F030008C7
:100110007F030008D14A00087F0300087F0300081E
:100120007F030008C90E00087F0300087F03000852
:100130007F03000800000000000000007F030008AB
:10014000E10A0008ED0A00087F030008F1420008F8
:100150007F030008D50E00087F030008A94E0008A1
:100160007F0300087F0300087F0300087F03000867
:100170007F0300087F0300087F03000800000000E1
:10018000000000007F0300080000000000000000E5
:100190007F03000800000000000000007F0300084B
:1001A0000000000000000000000000007F030008C5
:1001B0007F0300087F0300087F0300087F03000817
:1001C0007F03000800F002F800F05CF80AA090E855
:1001D000000C82448344AAF10107DA4501D100F002
:1001E00051F8AFF2090EBAE80F0013F0010F18BF73
:1001F000FB1A43F00103184720AA000040AA0000A0
:100200000A444FF0000C10F8013B13F0070408BF3C
:1002100010F8014B1D1108BF10F8015B641E05D0DA
:1002200010F8016B641E01F8016BF9D113F0080F8F
:100230001EBF10F8014BAD1C0C1B09D16D1E58BF21
:1002400001F801CBFAD505E014F8016B01F8016B58
:100250006D1EF9D59142D6D37047000000230024CB
:1002600000250026103A28BF78C1FBD8520728BFC6
:1002700030C148BF0B6070471FB50AF0CCFA1FBDF4
:1002800010B510BD00F095F91146FFF7F5FF08F025
:10029000C3FC00F0B3F903B4FFF7F2FF03BC00F0B6
:1002A000B7F900002C4B19680868B0E8F04F80F3EC
:1002B0000988BFF36F8F4FF0000080F311887047FB
:1002C0000000000008480068006880F308884FF0CC
:1002D000000080F3148862B661B6BFF34F8FBFF39E
:1002E0006F8F00DF00BF00BF08ED00E0DFF80C00FB
:1002F000016841F470010160704700BF88ED00E0C3
:10030000EFF30980BFF36F8F134B1A681EF0100FC5
:1003100008BF20ED108A20E9F04F106009B44FF0BB
:10032000500080F31188BFF34F8FBFF36F8F09F038
:1003300017FA4FF0000080F3118809BC19680868AB
:10034000B0E8F04F1EF0100F08BFB0EC108A80F339
:100350000988BFF36F8F70472C000020EFF30580F2
:10036000704700000948804709480047FEE7FEE75C
:10037000FEE7FEE7FEE7FEE7FEE7FEE7FEE7FEE755
:1003800004480549054A064B70470000B14700087C
:10039000C501000828530020285F002028570020AE
:1003A0002857002053EA020C00F069802DE9F04B39
:1003B0004FF00006002B1FBFB3FA83F503FA05F4D4
:1003C00024FA05F65E4012BF1643B2FA82F502FA2D
:1003D00005F4C5F120051EBF22FA05FC44EA0C0411
:1003E000203556EA044C4FEA144418BF641C4FF001
:1003F00000084FF00009904271EB030C39D300293B
:1004000019BFB1FA81F701FA07F6B0FA80F700FADE
:1004100007F6C7F120071EBF20FA07FC46EA0C06C4
:100420002037B6FBF4FCA7EB0507103F07F01F0BC6
:10043000CBF120060CFA0BFB2CFA06F644BFB346B0
:100440000026202FA4BF5E464FF0000B5BEA060C8F
:1004500008BF4FF0010B19EB0B09ABFB027C48EB1B
:100460000608C01B06FB02CC0BFB03CC71EB0C0196
:10047000C1E70B46024641464846BDE8F08B13B53E
:100480004FF000004FF00001AFF30080BDE81C40CA
:10049000704710B5431C02E010F8011B71B18107D1
:1004A000FAD14FF0013202C88C1A8C4314EAC211FF
:1004B000F9D0C01A0A0603D0C01E10BDC01A10BD64
:1004C0000A0401D0801E10BD0902FCD0401E10BDE0
:1004D00010B5203AC0F00B80B1E81850203AA0E8DF
:1004E0001850B1E81850A0E81850BFF4F5AF5FEA13
:1004F000027C24BFB1E81850A0E8185044BF18C9C6
:1005000018C0BDE810405FEA827C24BF51F8043B6C
:1005100040F8043B08BF7047D20728BF31F8023BC0
:1005200048BF11F8012B28BF20F8023B48BF00F854
:10053000012B70474FF0000200B5134694469646D3
:10054000203922BFA0E80C50A0E80C50B1F12001E6
:10055000BFF4F7AF090728BFA0E80C5048BF0CC094
:100560005DF804EB890028BF40F8042B08BF7047F2
:1005700048BF20F8022B11F0804F18BF00F8012B64
:10058000704770477047704710B500F00DF800686D
:1005900010BD10B5044600F007F8046010BD00005F
:1005A00000487047C852002000487047C8520020D9
:1005B00070477546FFF7F4FFAE460500694653469F
:1005C00020F00700854618B020B5FFF7D9FEBDE83A
:1005D00020404FF000064FF000074FF000084FF0AA
:1005E000000B21F00701AC46ACE8C009ACE8C0093B
:1005F000ACE8C009ACE8C0098D46704710B50446A8
:10060000AFF300802046BDE81040FFF744BE000075
:1006100001491820ABBEFEE726000200012202219C
:10062000014801F095BC00000004024000220221B4
:10063000014801F08DBC0000000402400122114677
:10064000014801F085BC00000004024000220121A5
:10065000014801F07DBC0000000402402DE9FC418E
:100660000746002016460D4600900190FFF7DEFF7A
:10067000922000F0B1F806226946122000F09AF8A4
:10068000FFF7CCFF9DF801009DF80010000200B2BA
:10069000084300EE100A464CB8EEC00AD4ED000A3A
:1006A00020EE200A85ED000A9DF803009DF8021057
:1006B000000200B2084300EE100AD4ED000AB8EEC2
:1006C000C00A20EE200A85ED010A9DF805009DF87C
:1006D0000410000200B2084300EE100AB8EEC00A8F
:1006E00020EE200A85ED020AFFF7B0FF08226946D6
:1006F000002000F05FF8FFF7A1FF9DF800000F2831
:1007000030D19DF803009DF80210000200B20843AA
:1007100000EE100AD4ED010AB8EEC00A20EE200A5D
:1007200087ED000A9DF805009DF80410000200B254
:10073000084300EE100AD4ED010AB8EEC00A20EE1C
:10074000200A87ED010A9DF807009DF806100002B7
:1007500000B2084300EE100AB8EEC00A20EE200AEC
:1007600087ED020AFFF762FFA22000F035F80222AF
:100770006946222000F01EF8FFF750FF9DF80000A8
:100780009DF80110C00040EA5110B0F5806F01DB08
:10079000A0F5006000EE100AB4EE001AF8EEC00AF0
:1007A000B3EE070A00EE810A86ED000ABDE8FC817F
:1007B000E400002070B514460D4640F0800000F0C3
:1007C0000BF806E0552000F007F8641E05F8010B51
:1007D000E4B2002CF6D170BD01B582B04FF47A704E
:1007E0000090012301AA02A9024802F06BFB9DF8C8
:1007F00004000EBD9C05002070B505462DED108B44
:1008000082B014460E46806809F094FF94ED048B84
:1008100094ED00BB41EC1A0B53EC182B51EC1B0B65
:1008200009F05EFD94ED069B94ED02CB41EC1D0BAF
:1008300053EC192B51EC1C0B09F052FD53EC1D2B02
:1008400009F020FA53EC1A2B09F04AFD41EC1D0B7C
:10085000686809F06FFF41EC1A0B53EC192B51EC4F
:100860001B0B09F03DFD41EC1B0B53EC182B51EC1D
:100870001C0B09F035FD53EC1B2B09F071FE53ECFA
:100880001A2B09F02DFD41EC1B0B286809F052FFD3
:1008900041EC1C0B53EC192B51EC190B09F020FD0A
:1008A00041EC190B53EC182B51EC180B09F018FD07
:1008B0009FED83AB53EC1A2B09F046FE53EC192B3A
:1008C00009F04EFE53EC1C2B09F00AFD53EC1B2BD8
:1008D00009F0D8F953EC1D2B09F0D4F99FED7ABB40
:1008E00053EC1B2B09F0FCFC09F09AF93060A86866
:1008F00009F020FF94ED029B94ED00DB41EC1F0B0F
:1009000053EC192B51EC1D0B09F0EAFC94ED068B0E
:1009100094ED04CB41EC1E0B53EC182B51EC1C0B4B
:1009200009F0DEFC53EC1E2B09F01AFE53EC1F2BD2
:1009300009F0D6FC41EC100B8DED000B686809F056
:10094000F9FE41EC1E0B53EC182B51EC180B09F07F
:10095000C7FC41EC1F0B53EC192B51EC190B09F0A0
:10096000BFFC53EC1A2B09F0EFFD53EC1F2B09F0E1
:10097000F7FD53EC1E2B09F0B3FC41EC1F0B28686C
:1009800009F0D8FE41EC1E0B53EC182B51EC1D0B5B
:1009900009F0A6FC41EC180B53EC1C2B51EC190B85
:1009A00009F09EFC53EC182B09F06CF953EC1E2B4C
:1009B00009F096FC53EC1F2B09F064F99DED000B38
:1009C00053EC102B09F05EF953EC1B2B09F088FC5B
:1009D00009F026F97060A86809F0ACFE94ED049B5C
:1009E00041EC1C0B53EC192B51EC190B09F078FC62
:1009F00094ED028B41EC1D0B53EC182B51EC180BB2
:100A000009F06EFC53EC1A2B09F09EFD53EC1D2BE4
:100A100009F0A6FD53EC1C2B09F062FC41EC1F0B06
:100A2000686809F087FE94ED00CB41EC1E0B53EC97
:100A3000182B51EC1C0B09F053FC94ED06AB41EC68
:100A40001D0B53EC1A2B51EC190B09F049FC53EC1C
:100A50001D2B09F017F953EC1E2B09F041FC41EC5A
:100A60001E0B286809F066FE41EC1D0B53EC192B98
:100A700051EC1C0B09F034FC41EC190B53EC1A2B14
:100A800051EC180B09F02CFC53EC192B09F068FD04
:100A900053EC1D2B09F024FC53EC1E2B09F0F2F84B
:100AA00053EC1F2B09F0EEF853EC1B2B09F018FC4C
:100AB00009F0B6F8B06002B0BDEC108B70BD00005C
:100AC000000000000000E03F0000000000000040C7
:100AD000FEE70000014800F0DCBC0000F802002046
:100AE000014800F0D6BC000020030020014800F0BF
:100AF000D0BC00002003002070B5AA4CAA492DEDFF
:100B0000048BB0EE409AF0EE609A94ED070A84ED03
:100B1000090A51F8030FA0628988A1829FEDA30AF8
:100B2000A349A44D84ED0B0A884209DDBDEC048B7A
:100B300005F5A6704FF48051BDE8704003F098BBF6
:100B4000B5F94C01B5F90610B5F91220401AB5F9FE
:100B50004E11891A0844B5F95011B5F91E20891AA9
:100B60000844B5F95211B5F92A20891A084409F048
:100B700000FB41EC100B84ED140B9FED8F1B53EC2D
:100B8000112B09F08BFA36D0B5F94C01B5F90610E6
:100B9000401A09F0EEFA94ED148B53EC182B09F07F
:100BA00025F9C4E90C01B5F94E01B5F91210401A46
:100BB00009F0DFFA53EC182B09F018F9C4E90E011B
:100BC000B5F95001B5F91E10401A09F0D2FA53ECEC
:100BD000182B09F00BF9C4E91001B5F95201B5F968
:100BE0002A10401A09F0C5FA53EC182B09F0FEF848
:100BF000C4E9120109E09FED721B84ED0C1B84ED2A
:100C00000E1B84ED101B84ED121B94ED140B53ECA2
:100C1000192B51EC100B09F0E9F809F001F8F7EE87
:100C2000000AE061B0F17E5F02DDC4ED070A06E074
:100C300010F1814F03D9BFEE000A84ED070A6078F6
:100C4000C0BB614890ED010AB5EEC00AF1EE10FAA2
:100C500044D010EE100A5D4901445D48814202D241
:100C60009FED5C0A07E010EE101A5B4A11448142C6
:100C700004D29FED5A0A84ED080A31E010EE101AF2
:100C8000574A1144814202D29FED560AF3E710EE13
:100C9000101A554A1144814202D29FED540AEAE7E4
:100CA00010EE100A524908445249884203D2B6EE67
:100CB000000AE0E712E010EE100A4F4908444F49DD
:100CC000884202D29FED4E0AD5E710EE100A4A493B
:100CD000C943884204DA9FED4B0ACCE7C4ED080A09
:100CE000206A064609F026FD94ED0B0AD4ED070AAA
:100CF00041EC190B20EE208A18EE100A09F01AFDBB
:100D000094ED0C1B53EC112B09F0EAFA53EC192B60
:100D100009F0E6FA09F0FEF96880304609F00AFDAC
:100D200041EC190B18EE100A09F004FD94ED0E1BAE
:100D300053EC112B09F0D4FA53EC192B09F0D0FA2B
:100D400009F0E8F9E881304609F0F4FC41EC190BB0
:100D500018EE100A09F0EEFC94ED101B53EC112B69
:100D600009F0BEFA53EC192B09F0BAFA09F0D2F9DE
:100D70006883304609F0DEFC41EC190B18EE100ACE
:100D800009F0D8FC94ED121B53EC112B09F0A8FAD2
:100D900053EC192B09F0A4FA09F0BCF9E884BDEC76
:100DA000048B70BDA0020020684F002000607047D7
:100DB00000001644985000200000000000000000D1
:100DC000000000000000D03FC84E0020FFFF47BEDB
:100DD000FFFF07006666663FFFFF4FBECDCC4C3F6E
:100DE000FFFF57BE3333333FFFFF5FBE9A99193F72
:100DF000FFFF6FBEFFFF0F00FFFF8FBEFFFF1F0053
:100E00009A99993ECDCCCC3D1E4CB3EE0E0A2DEDF9
:100E1000028B002584ED0C0AB6EE000A84ED0D0A63
:100E2000B0EE000A9FED188A84ED0E0A04F1300638
:100E300005EB0510B0EE480A04EB8000F0EE400A26
:100E400031463C3007F0FEFF6D1CEDB2042DEFD3B0
:100E50000025A4F85451A4F85651A4F8585100BFE5
:100E6000A4F85451A4F85651A4F8585108F080FE43
:100E700007F01CFF06F0F8F805F090FF012007F0DE
:100E800047FFEDE79850002000008046014800F041
:100E900019BE000004090020014800F013BE000044
:100EA000840A0020014800F00DBE0000F405002077
:100EB000014800F007BE000054060020014800F081
:100EC00001BE000064090020014800F0FBBD0000E5
:100ED000E40A0020014800F0F5BD0000440B0020AA
:100EE00001681823CAB2103AB2FBF3F2054B6FF354
:100EF0000901032A9B5CC36500D9091D8165084669
:100F000070470000ECA8000810B5014600208B696E
:100F10008A6A4FF0C07453B1B3F5005F15D072B157
:100F2000012A0CD0022A0AD0032A09D104E01AB1FE
:100F3000012A06D0022A03D1C96AC90100D50120BD
:100F400010BDC96AA142FAD010BD002AF7D0012A0B
:100F5000F2D0022AF3D0032AF3D010BD30B50468D2
:100F6000256825F480252560046863608368402B2C
:100F7000036803D099600068C26030BD9A60006861
:100F8000C16030BD074808B540680090014606487A
:100F90000269914202D2C168491CC1600099016195
:100FA00008BD0000001000E09000002000B50E49D0
:100FB0002DED028B81B0496800910168009A511AA9
:100FC00000EE101A0949F8EE400A91ED000A02609D
:100FD000B8EE400A80EE808AFFF7D4FF01B0B0EE91
:100FE000480ABDEC028B00BD001000E0900000201C
:100FF0007047000070B505462DED108B82B0144689
:101000000E46806809F096FB94ED048B94ED00BBCE
:1010100041EC1A0B53EC182B51EC1B0B09F060F947
:1010200094ED069B94ED02CB41EC1D0B53EC192B78
:1010300051EC1C0B09F054F953EC1D2B09F090FAFC
:1010400053EC1A2B09F04CF941EC1D0B686809F0C0
:1010500071FB41EC1A0B53EC192B51EC1B0B09F0F3
:101060003FF941EC1B0B53EC182B51EC1C0B09F016
:1010700037F953EC1B2B08F005FE53EC1A2B09F043
:101080002FF941EC1B0B286809F054FB41EC1C0BB9
:1010900053EC192B51EC190B09F022F941EC190B07
:1010A00053EC182B51EC180B09F01AF99FED83AB98
:1010B00053EC1A2B09F048FA53EC192B09F050FAAB
:1010C00053EC1C2B09F00CF953EC1B2B08F0DAFD48
:1010D00053EC1D2B08F0D6FD9FED7ABB53EC1B2B78
:1010E00009F0FEF808F09CFD3060A86809F022FBCA
:1010F00094ED029B94ED00DB41EC1F0B53EC192B9C
:1011000051EC1D0B09F0ECF894ED068B94ED04CB3B
:1011100041EC1E0B53EC182B51EC1C0B09F0E0F8C2
:1011200053EC1E2B08F0AEFD53EC1F2B09F0D8F842
:1011300041EC100B8DED000B686809F0FBFA41ECF7
:101140001E0B53EC182B51EC180B09F0C9F841ECAD
:101150001F0B53EC192B51EC190B09F0C1F853EC90
:101160001A2B09F0F1F953EC1F2B09F0F9F953ECA4
:101170001E2B09F0B5F841EC1F0B286809F0DAFACC
:1011800041EC1E0B53EC182B51EC1D0B09F0A8F889
:1011900041EC180B53EC1C2B51EC190B09F0A0F887
:1011A00053EC182B09F0DCF953EC1E2B09F098F8DE
:1011B00053EC1F2B08F066FD9DED000B53EC102B3C
:1011C00008F060FD53EC1B2B09F08AF808F028FDAD
:1011D0007060A86809F0AEFA94ED049B41EC1C0B1A
:1011E00053EC192B51EC190B09F07AF894ED028BA2
:1011F00041EC1D0B53EC182B51EC180B09F070F857
:1012000053EC1A2B09F0A0F953EC1D2B09F0A8F9A7
:1012100053EC1C2B09F064F841EC1F0B686809F0D3
:1012200089FA94ED00CB41EC1E0B53EC182B51ECDA
:101230001C0B09F055F894ED06AB41EC1D0B53EC7B
:101240001A2B51EC190B09F04BF853EC1D2B09F03C
:1012500087F953EC1E2B09F043F841EC1E0B28686C
:1012600009F068FA41EC1D0B53EC192B51EC1C0BE7
:1012700009F036F841EC190B53EC1A2B51EC180B12
:1012800009F02EF853EC192B08F0FCFC53EC1D2B45
:1012900009F026F853EC1E2B08F0F4FC53EC1F2B3E
:1012A00008F0F0FC53EC1B2B09F01AF808F0B8FC1E
:1012B000B06002B0BDEC108B70BD000000000000FB
:1012C0000000E03F000000000000004072B6FEE7B2
:1012D000012007F01DFDFBE7012007F019FDFBE7EA
:1012E000F0B590F820500468A468012D05D0022DB7
:1012F00003D0416A41F4802153E014F0406F01D1E2
:10130000E5004BD5C4F30164022C03D9416A41F4D2
:10131000000146E00125A5401D608D684FF4C073B3
:101320009DB1CE6835434E6845EAC605066803EBB5
:101330000417F5514FF4C275076805EB04150E69E3
:101340007E51097D012905D009E00E88CD6845EA66
:101350004655EBE701684E5946F480764E511179B7
:10136000D2F805504FF4C67641EA0525016806EB30
:1013700004168D511178D2F801204FF4C47541EA5A
:101380000221026805EB04155151006803EB0411BA
:10139000425842F0010242500020F0BD416A41F43F
:1013A000001141620120F0BD704730B590F8204037
:1013B000012C05D0022C03D0416A41F480215DE06C
:1013C0000468002955D02469A40754D04FF4D87478
:1013D000056804EB01142D5915F0040595600568A6
:1013E0002D594ED0ED08556005682C5904F00204C3
:1013F000D4604FF4DA74056804EB01142D5905F03C
:101400000F05156105682D59C5F307259561056818
:101410002C59240C54614FF4DC72046802EB011265
:10142000A4581C700468A458240A5C700468A4586A
:10143000240C9C700468A258120EDA704FF4DE720D
:10144000046802EB0112A4581C710468A458240A11
:101450005C710468A458240C9C710468A258120E94
:10146000DA71006881B1016941F020010161002059
:1014700030BDE468A8E7416A41F4001141620120EF
:1014800030BD6D0D1560AFE7C16841F02001C1604E
:10149000EDE72DE9F05F0546006800244669D0F8C5
:1014A00004908768D0F80CB0D0F810A0D0F818805D
:1014B000F10748D0F90714D001218160B80703D59E
:1014C000284600F09FFA0CE0780702D54FF400643C
:1014D00007E0380702D54FF4805402E0284600F0B8
:1014E00090FAF80516D529684FF480708860B80521
:1014F00003D5284600F088FA0CE0780502D544F4BC
:10150000005407E0380502D544F4804402E0284640
:1015100000F079FAF80316D529684FF48030886016
:10152000B80303D5284600F071FA0CE0780302D521
:1015300044F4004407E0380302D544F4803402E068
:10154000284600F062FA300707D55FEACB6004D581
:101550002968102044F40074C86070074FF0080731
:1015600007D55FEA0B7004D52868C760284600F0ED
:10157000A5F9B00706D52868C068800702D02846BC
:1015800000F09EF9700607D55FEACA6004D52968A5
:10159000102044F480640861B00607D55FEA0A7041
:1015A00004D528680761284600F028FAF00606D519
:1015B00028680069800702D0284600F020FAB003AE
:1015C00008D55FEAC96005D529681020486028461B
:1015D00000F016FAF00307D55FEA097004D5286811
:1015E0004760284600F013FA300446D55FEA497098
:1015F00040D5F00504D55FEAC87001D044F001047D
:10160000B00504D55FEA887001D544F00204700586
:1016100004D55FEA487001D544F00404300529D5AB
:1016200018F0700F26D008F07000402815D006DCA6
:10163000102809D020280AD0302816D10AE05028D6
:101640000ED0602811D10EE044F008040DE044F003
:1016500010040AE044F0200407E044F0400404E0F1
:1016600044F0800401E044F480742868816921F02A
:1016700070018161296804204860002C05D0686AE7
:10168000204368622846FFF78FFEBDE8F09F70B5E3
:10169000040003D094F8200010B104E0012070BDD4
:1016A000204600F081F82068016821F00201016005
:1016B00000F054FC0546052604E000F04FFC401BFA
:1016C0000A2811D8206840688007F6D4206801688D
:1016D00041F00101016000F041FC05460BE000F023
:1016E0003DFC401B0A2806D9606A40F40030606265
:1016F00084F82060D2E720684068C007EFD0207EE1
:101700000128206801683DD021F080010160607EE1
:1017100001282068016838D021F040010160A07ED6
:1017200001282068016833D021F020010160E07EAB
:101730000128206801682ED041F010010160207F4F
:1017400001282068016829D021F008010160607F2C
:1017500001282068016824D021F004010160D4E947
:1017600002010843D4E90412114308436168491E89
:1017700008432168C86100206062012084F82000CD
:10178000002070BD41F08001C0E741F04001C5E795
:1017900041F02001CAE721F01001CFE741F0080134
:1017A000D4E741F00401D9E72DE9F04387B00446BE
:1017B00014216846FEF7BEFE3C4B3D48DFF8E8804A
:1017C0001968D4F800C03A4A022503260927DFF831
:1017D000E49010300024491CC44524D1196001292B
:1017E00007D1016841F000710160006800F00070ED
:1017F0000590106840F002001060106802AB00F025
:10180000020005904FF44070CDE9000583E8D00058
:101810006946484600F0C8FA00220521142000F06D
:101820000FFC14203BE0DFF89080C44539D1D0F89C
:1018300000C04CF0806CC0F800C0D0F800C0012996
:101840000CF0806CCDF814C0196007D1016841F02C
:1018500000710160006800F000700590106840F0B1
:1018600002001060106802AB00F0020005904FF417
:101870004050CDE9000583E8D0006946484600F0B5
:1018800093FA00220521402000F0DAFB402000F00E
:10189000C9FB00220521412000F0D2FB412000F0CD
:1018A000C1FB07B0BDE8F0830064004000000020E9
:1018B00030380240000402400068004070470000D9
:1018C00030B505462DED028B8BB000684349444C82
:1018D000884224D109AB02AA00212846FFF765FD02
:1018E0000298A0F20120032819D8BDF8241010F0A6
:1018F000FF004ABA3B4900EB400301EB83018A80B9
:10190000BDF8262052BACA80BDF8282052BA0A81F2
:101910009DF82A208A7202D12088401C20803249FA
:101920002868884237D16B4602AA00212846FFF773
:101930003CFD0298552832D0A0F5007111392AD10A
:10194000BDF8000000EE100A2948F8EE400A9FEDAD
:10195000270A80EE801A80ED001ABDF8021000EE12
:10196000901AF8EE600A80EE801A80ED011ABDF838
:10197000041000EE901AF8EE600A80EE801A80EDF6
:10198000021ABDF8061000EE901AF8EE600A80EE1A
:10199000801A80ED031A0BB0BDEC028B30BDBDF890
:1019A00000006080BDF90250A580BDF90400E08010
:1019B00008F0DFFB9FED0F8B53EC182B08F016FAA5
:1019C00008F02EF9A060284608F0D3FB53EC182B42
:1019D00008F00CFA08F024F9E060DCE70068004049
:1019E000D400002098500020006400400000C8424D
:1019F000C84E0020000000000000594070477047AA
:101A0000704770477047704770477047704770471E
:101A10002DE9F0410446876D00F0A0FA064694F8DF
:101A200035000025022806D08020606584F83450F7
:101A30000120BDE8F0812068016821F016010160F5
:101A40002068416921F080014161206C08B9A06CD7
:101A500020B12068016821F0080101602068016858
:101A600021F0010101600BE000F078FA801B0528ED
:101A700006D92020606504F8345F03206070D8E741
:101A800020680068C007EFD194F85C103F208840C0
:101A9000B86004F8345F012060700020C9E790F856
:101AA0003510022903D080214165012070470521AE
:101AB00080F835100068016821F001010160002004
:101AC000704700002DE9F84304464FF00009CDF8B7
:101AD000009063484FF41651A56D0068B0FBF1F714
:101AE0002E6894F85C10082000FA01F131420FD002
:101AF00021680A6852070BD50A6822F004020A60BE
:101B000094F85C108840A860606D40F0010060654A
:101B100094F85C104FF0010808FA01F0304208D048
:101B200021684969090604D5A860606D40F002008B
:101B3000606594F85C1004208840304208D0216829
:101B40000968890704D5A860606D40F004006065ED
:101B500094F85C1010208840304218D02168096841
:101B6000090714D5A86020680168490304D50068F6
:101B7000000308D5A16C07E00168C90503D401681A
:101B800021F008010160216C09B12046884794F8D2
:101B90005C1020208840304231D021680968C90695
:101BA0002DD5A86094F8350005282068016806D076
:101BB000490347D5006800031DD4616C1CE021F087
:101BC000160101602068416921F080014161206CAB
:101BD00008B9A06C20B12068016821F008010160FB
:101BE00094F85C103F208840A86084F8349084F812
:101BF0003580216D1FE0E16B09B120468847606D9B
:101C000000282BD0606DC00714D0052084F8350063
:101C10002068016821F0010101600098401C0090DB
:101C2000B84203D820680068C007F6D184F8349021
:101C300084F83580E16C002910D001B02046BDE861
:101C4000F04308470168C905D5D4016821F01001A7
:101C5000016084F8349084F83580CCE7BDE8F883DF
:101C60001C0000202DE9F041044600F077F90646FB
:101C70005CB1002584F83450022084F835002068D7
:101C8000016821F0010101600DE00120BDE8F08153
:101C900000F064F9801B052805D920206065032029
:101CA00084F83500F2E720680068C007F0D12268A8
:101CB000116820480140D4E901031843D4E90336F0
:101CC0003343184363691843A3691843E36918430E
:101CD000236A18430843616A042903D1D4E90B132A
:101CE00019430843106020684069666A20F00701C4
:101CF00030460E43012704280CD1A06A0643E06A4F
:101D000040B12046FFF700F920B14020606584F81B
:101D10003570BAE7206846612046FFF7E1F894F88D
:101D20005C203F2191408160656584F8357000201A
:101D3000ACE700003F8010F02DE9F0410446866DCD
:101D400090F83400002501280DD0012084F83400DB
:101D500094F835700020012F07D084F83400022554
:101D60002846BDE8F0810220FBE7022784F83570A1
:101D700060652046FFF7F2F894F85C103F20884039
:101D8000B0602068016841F016010160206C20B14C
:101D90002068016841F0080101602068016841F095
:101DA00001010160DCE700002DE9F84F00224FF04F
:101DB000010803254FF00F0E0B6808FA02F42340C8
:101DC000A3426ED14E68012E05D0022E03D0112EF3
:101DD00001D0122E12D186684FEA420C05FA0CF798
:101DE000BE43CF6807FA0CF7374387604668A643BF
:101DF0000C79C4F30014944034434460C66857001F
:101E000005FA07FC8C6826EA0C06BC403443C46023
:101E10004C68022C01D0122C13D1D40800EB84049E
:101E2000A346D4F8209054074FEAD46A0EFA0AF673
:101E300029EA06090E6906FA0AF646EA0906CBF807
:101E4000206006680C7926EA0C0604F00304BC4006
:101E5000344304604C68E40060D5334C266846F493
:101E600080462660246822F0030604F4804400942F
:101E70002E4C3444A446D4F808489607370F0EFA7F
:101E800007F6B4432A4EB04201D100261FE0294E86
:101E9000B04201D101261AE0274EB04202D10226FB
:101EA00015E03BE0254EB04201D103260FE0244E61
:101EB000B04201D104260AE0224EB04201D10526EB
:101EC00005E0214EB04201D1062600E00726BE40C3
:101ED0002643CCF808681D4E34684F689C43FF03C6
:101EE00000D51C433460194E361D34684F689C433E
:101EF000BF0300D51C433460144E083634684F6865
:101F00009C43FF0200D51C433460104E0C363468ED
:101F10004F689C43BF0200D51C433460521C102AFA
:101F2000FFF44AAFBDE8F88F44380240003001406A
:101F3000000002400004024000080240000C024081
:101F4000001002400014024000180240003C014012
:101F50000AB1816170470904FBE70000014880680D
:101F60007047000020000020024881680278114478
:101F700081607047200000200B4810B5016841F4D3
:101F800000710160016841F480610160016841F401
:101F900080710160032000F073F80F2000F006F854
:101FA00000F024F8002010BD003C024070B50D4D3B
:101FB00004464FF47A712878B1FBF0F00A490968B9
:101FC000B1FBF0F001F06FF848B9102C07D20022F5
:101FD0002146501E00F034F800206C6070BD0120D6
:101FE00070BD0000200000201C0000200C4882B0C2
:101FF000016841F480410160006800F48040009075
:102000000748001F016841F080510160006800220C
:1020100000F0805000900F21901E02B000F010B828
:1020200044380240002809DB00F01F0201219140E2
:102030004009800000F1E020C0F800117047000066
:10204000F0B40E4B1B680C46C3F30223C3F1070523
:10205000042D00D90425191D072901D2002300E011
:10206000DB1E012606FA05F1491E214099409E40DB
:10207000761E16403143F0BC03F0C2BF0CED00E009
:10208000064900F0070208684FF6FF03184040EACF
:102090000220034A10430860704700000CED00E086
:1020A0000000FA0570B5164D0446A1B1012911D101
:1020B0002068D0F8001E41F00101C0F8001ED4F8DD
:1020C000040403F0E7F9206A002803D0286840F0F0
:1020D0000600286070BD206A28B102F01DFB286848
:1020E00020F0060028602068D0F8001E21F00101D1
:1020F000C0F8001ED4F80404BDE8704003F06DB9C8
:1021000010ED00E0D0F8040403F005B9C1EBC10202
:1021100000EB8202D0F80404926C03F064B8C1EBC7
:10212000C10200EB8202D0F80404D2F8082203F0C6
:10213000B9B8D0F8040403F0F0B870B5044601F063
:102140000F006268904201D9012070BD0B0601F0BA
:102150000F01C1EBC10104EB81014FF001024FF00F
:10216000000503D581F83D203C3103E081F8FD51A5
:1021700001F5FE718D70087094F8BC03012808D039
:1021800084F8BC23206803F0CFFC84F8BC53002003
:1021900070BD022070BD2DE9F04104460F0601F02C
:1021A0000F00C0EBC00104EB81014FF001064FF0BE
:1021B000000503D581F83D603C3103E081F8FD5115
:1021C00001F5FE7108708A60CB704A7802B1C88050
:1021D000022B00D10D7194F8BC03012809D084F8BA
:1021E000BC63206803F09AFB284684F8BC53BDE822
:1021F000F0810220FBE770B50C4601F00F05C5EB3E
:10220000C50100EB8101C1F81032C1F8082200239A
:10221000C1F8143281F8FD3181F8FC51036901F5F0
:10222000FE71012B00D10A612207027C006803D0F5
:1022300003F0D2FC002070BD03F0BEFBFAE770B5DE
:1022400004460D4601F00F006168884201D9012063
:1022500070BD29064FF000064FF0010207D5C0EB14
:10226000C00104EB810181F83D203C3107E0C5EB62
:10227000C50104EB810181F8FD6101F5FE718A70F1
:10228000087094F8BC03012807D084F8BC232068A8
:1022900003F076FC280702D007E0022070BD217C05
:1022A00004F57172206803F013FC84F8BC6300200D
:1022B00070BD70B50C4601F00F05C5EBC50100EB14
:1022C00081010B658A6400234B65012381F83D3051
:1022D00001F83C5F0369012B00D10A612207027CEF
:1022E000006803D003F078FC002070BD03F064FBAD
:1022F000FAE700002DE9FC5F05680446284603F074
:102300007EFD00287ED1206803F0A5FD002879D04D
:10231000206803F0A0FD800704D52068416901F022
:1023200002014161206803F096FDC10604F5717059
:10233000009034D52068816921F0100181612F6AF5
:1023400007F00F00C0EBC00004EB8006C7F343406A
:1023500006F5FE76022802D0062811D01AE047F6CC
:10236000F070074216D0C7F30A1217462846F168E4
:1023700003F075FDF0683844F060B069384408E057
:1023800008222846009903F06AFDB169C7F30A10D4
:102390000844B0612068816941F0100181612068C2
:1023A00003F059FD00034FF001094FF0080B5BD516
:1023B0000026206803F02EFD0746DFF8A4A351E0B5
:1023C000F8074DD0F1B2206803F03DFD8046C0070C
:1023D00007D005EB4611C1F8089B3146204601F0B5
:1023E0008DFF5FEA087022D505EB4611C1F808BBE6
:1023F0002068026C00EB46100192D0F8081B524591
:1024000007D900E0A9E1090403D54FF40041C0F861
:10241000081B204600F0E0F90198504507D92069D3
:10242000012804D120680121009A03F051FB5FEAE2
:10243000C86004D505EB46111020C1F8080B5FEA0F
:10244000886004D505EB46112020C1F8080B5FEA2F
:10245000884005D505EB46114FF40050C1F8080B34
:102460007F08761C002FABD1206803F0F4FC4003FA
:102470004FF0000A5CD5206803F0C5FC0746002633
:1024800054E0F80750D0F1B2206803F0CAFC80464F
:10249000C00723D006F00F0209FA02F0D5F834285D
:1024A0008243C5F8342805EB4610C0F80899206926
:1024B00001280FD1C6EBC60004EB8000D0E9112142
:1024C0001144816436B9206D20B920680121009A39
:1024D00003F0FEFAF1B22046FFF718FE5FEA08703B
:1024E00003D505EB4611C1F808B95FEAC86004D509
:1024F00005EB46111020C1F808095FEA486004D5D1
:1025000005EB46114020C1F808095FEA887004D540
:1025100005EB46110220C1F808095FEA086003D5FF
:102520003146204601F050FF7F08761C002FA8D1CD
:10253000206803F090FC002811DAD5F8040820F098
:102540000100C5F8040894F8F403012839D02046A6
:1025500000F026F92068416901F0004141612068DE
:1025600003F079FC00050BD5D5F80808C00702D0A8
:10257000204600F039F92068416901F400614161A9
:10258000206803F068FC00010AD52068416901F069
:102590000061416194F8F403D0B1204600F024F9C1
:1025A000206803F058FCC00476D5D5F8040820F064
:1025B0000100C5F804081021206803F001FC002187
:1025C00035E084F8F4A300212046FFF76BFDC1E756
:1025D00084F8F4932068406D0121C0F38300C4F8AF
:1025E000F8032046FFF75EFDDAE700BF05EB411078
:1025F0004FF67F32C0F80829D0F8003923F40013D1
:10260000C0F80039D0F8003943F00063C0F8003951
:10261000C0F8082BD0F8002B22F40012C0F8002BD1
:10262000D0F8002B42F00062C0F8002B491C606813
:102630008842DBD8D5F81C0840F00110C5F81C080A
:10264000206B60B1D5F8840840F00B00C5F8840811
:10265000D5F8440840F00B00C5F844080CE0D5F864
:10266000141842F22B000143C5F81418D5F81008CD
:1026700040F00B00C5F81008D5F8000820F4FE6003
:10268000C5F80008217C2068009A03F021FA206830
:10269000416901F480514161206803F0DCFB800452
:1026A00015D5206803F07AF9206803F09BFBE06001
:1026B00000F04CF90146227B206803F0EFFB204636
:1026C00000F058F82068416901F400514161206828
:1026D00003F0C1FB000707D5204600F065F820682D
:1026E000416901F008014161206803F0B4FBC002B8
:1026F00008D50021204600F035F82068416901F432
:1027000080114161206803F0A6FB800208D50021FA
:10271000204600F02BF82068416901F40011416166
:10272000206803F098FB400007D52046FFF7EAFC3D
:102730002068416901F080414161206803F08BFB12
:1027400040070AD520684568680702D52046FFF78C
:10275000F0FC2068416829434160BDE8FC9F00000F
:102760000A30544FD0F8040402F0F4BDD0F8040449
:1027700002F0F2BD70B50446C068012570B10228B0
:1027800001D0FEF7A3FD2946D4F8040402F03BFE75
:10279000D4F80404BDE8704002F0F5BD0025F2E76E
:1027A000D0F8040402F019BED0F8040402F01FBEF1
:1027B00010B5044690F8BC0301280BD0012084F822
:1027C000BC0384F83810206803F057FB002084F81D
:1027D000BC0310BD022010BDD0F8042400F57171B7
:1027E000104602F01CBE000010B50446D0F80404E8
:1027F00002F050FE2068D0F8001E41F00101C0F840
:10280000001E206A002804D00248016841F0060139
:10281000016010BD10ED00E02DE9F0470E46050007
:1028200065D0DFF81481D8F80000F7B200F00F008F
:10283000B04207D288F80070D8F8000000F00F000E
:10284000B04254D128683D4C810712D5400703D5CA
:10285000206840F4E05020602878000703D5206805
:1028600040F4604020602068A96820F0F000084330
:1028700020602878C0072DD03049686808390128C1
:1028800012D0022813D0032811D009688907002923
:102890002DDA216821F0030101432160FFF75EFB7F
:1028A000814641F2883A0EE009688903EFE709683A
:1028B0008901ECE7FFF752FBA0EB0901514502D972
:1028C0000320BDE8F0872068696800F00C00B0EBD9
:1028D000810FEFD1D8F80010404601F00F01B1424E
:1028E00007D90770006800F00F00B04201D0012046
:1028F000E7E72878400705D52068E96820F4E0502C
:10290000084320602878000706D52068296920F44C
:10291000604040EAC100206000F03EF82168084AAB
:10292000C1F30311515CC8400649086006480068BD
:10293000FFF73CFB0020C4E7003C0240083802409F
:10294000D4A800081C0000202400002001480068D2
:10295000704700001C000020044805490068096811
:10296000044AC1F38221515CC84070471C0000201A
:1029700008380240E4A800080448054900680968CE
:10298000044AC1F34231515CC84070471C0000202A
:1029900008380240E4A80008224810B5006810F08A
:1029A0000C02214815D02149042A11D01D4C241FA6
:1029B000082A0FD00C2A0CD12268236802F03F02AB
:1029C0005B0221D52068C0F38810A0FB010120E044
:1029D000084610BD2268236802F03F025B0205D55D
:1029E0002068C0F38810A0FB010104E02168C1F356
:1029F0008811A1FB00010023FDF7D4FC2168C1F37D
:102A00000141491C49000AE02168C1F38811A1FB7A
:102A100000010023FDF7C6FC2168C1F30271B0FB81
:102A2000F1F010BD083802400024F400001BB7008C
:102A30002DE9F84F0546DFF828B30078ABF104071D
:102A4000C007A7F1040451D0DBF800105846C1F3C9
:102A5000810101290FD00168C1F38101022902D14E
:102A60003968490207D40068C0F38100032809D1FE
:102A70003868400206D52068800337D5686800288A
:102A800072D033E06868B0F5803F10D0B0F5A02F69
:102A9000206810D020F480302060206820F480204E
:102AA00020606868A8B1FFF759FA06460DE0206873
:102AB00040F48030F4E740F480202060F7E700BF66
:102AC000FFF74CFA801B642878D820688003F7D57C
:102AD0000CE0FFF743FA064605E000BFFFF73EFAB9
:102AE000801B6428F0D820688003F7D42878DFF8AA
:102AF000749280074FF0000A46D5DBF80010584664
:102B000011F00C0F0FD00168C1F38101022902D12D
:102B10003968490207D50068C0F38100032809D14C
:102B20003868400206D42068800715D5E868012877
:102B30001AD111E0E868C0B10120C9F80000FFF720
:102B40000DFA064605E000BFFFF708FA801B0228D1
:102B5000BAD820688007F7D52068296920F0F800E6
:102B600040EAC10020600FE0F7E0C9F800A0FFF7DD
:102B7000F5F9064605E000BFFFF7F0F9801B0228D3
:102B80001CD820688007F7D42878000727D5DFF8FD
:102B9000D0817548696908F16C0881B10121016033
:102BA000FFF7DCF9064604E0FFF7D8F9801B02289E
:102BB00004D8D8F800008007F6D510E089E0C0F806
:102BC00000A0FFF7CBF9064605E000BFFFF7C6F906
:102BD000801B02287DD8D8F800008007F6D428781A
:102BE000400769D55E484FF0000838300068C000E3
:102BF0000BD45B483830016841F0805101600068B7
:102C00004FF0010800F080500090584E3068C00529
:102C100011D4306840F480703060FFF79FF9009065
:102C200006E000BFFFF79AF90099401A022850D831
:102C30003068C005F6D54A4EA868683601280FD01E
:102C40000528306810D020F001003060306820F096
:102C500004003060A868B8B1FFF780F900900FE079
:102C6000306840F00100F4E740F004003060F7E71E
:102C7000FFF774F90099411A41F28830814264D813
:102C800030688007F4D50EE0FFF768F9009007E0A0
:102C9000FFF764F90099411A41F28830814254D813
:102CA00030688007F4D4B8F1000F05D02C483830D4
:102CB000016821F080510160A869A8B3DBF8001019
:102CC000C1F38101022948D00228C9F860A005D0CB
:102CD00000E03AE0FFF742F9054639E0FFF73EF938
:102CE000064604E0FFF73AF9801B02282DD8206839
:102CF0008001F7D4F5E907010843E9681C4A49084F
:102D000002EB0141AA6841EA82110843297C40EAAA
:102D10000160297D40EA017038600120C9F8600037
:102D2000FFF71CF9054606E015E000BFFFF716F9AE
:102D3000401B022809D820688001F7D50BE000BFAE
:102D4000FFF70CF9401B022802D90320BDE8F88FD9
:102D500020688001F4D40020F8E70120F6E70000A5
:102D60000838024000004742800E47420070004091
:102D70000000FFFF70B5040005D00025A56294F89F
:102D8000510010B106E0012070BD84F8505020467B
:102D900000F030F8022084F851002068016821F02A
:102DA00040010160D4E901010843D4E90312114351
:102DB000084361690843218B01F400710843E1690C
:102DC0000843216A0843A16A084321680860A06992
:102DD000042101EA1040616A0843216848602068C4
:102DE000C16921F40061C1616565012084F8510069
:102DF000002070BDF0B587B0064614216846FDF787
:102E000099FB2B493068884250D12A480024016838
:102E100041F480410160006800F48040059025483D
:102E20001038016841F0020101600068694600F055
:102E3000020005904FF4444000900220CDE90104C7
:102E400003200390052004901B48FEF7ADFF1C4DA6
:102E50001A48C5E900040715AC60C5E903476C6171
:102E60004FF44030AC61C5E9074028466C62FEF77C
:102E7000F9FE08B1FEF72AFAF564AE63104D0F486B
:102E800060351830E5E80204402091C5C00245F8DD
:102E90001449AC61C5E9074009486C626030FEF72F
:102EA000E1FE08B1FEF712FAB564AE6307B0F0BDFB
:102EB00000380040403802400004024058600240A0
:102EC000F40500202DE9F84F044690F85000002743
:102ED0000A9E1D4692468B464FF0010901280ED0EE
:102EE000012084F85000FFF739F8804694F851002B
:102EF000616801280CD0B1F5827F07D102E0022081
:102F0000BDE8F88FA16809B9042801D00227C2E002
:102F1000BBF1000F27D0BAF1000F24D01DB394F8F5
:102F20005100042802D0052084F85100002060657B
:102F3000C4F838A0E587A587C4F830B0E586A58633
:102F40002064606420680168490603D4016841F088
:102F500040010160E068B0F5006F606805D0E8B33B
:102F6000012D46D07FE0012795E008B1012D39D130
:102F7000206B21680088C860206B801C2063E08E75
:102F8000401EE0862EE02068816889070FD5E18E1B
:102F900069B1B9F1010F0AD1216B0988C160206BB9
:102FA000801C2063E08E401EE0864FF00009206800
:102FB0008168C9070CD0E18F51B1C068A16B08804E
:102FC000A06B801CA063E08F401EE0874FF00109DA
:102FD000FEF7C4FFA0EB0800B04200E009E001D317
:102FE000701C50D1E08E0028CDD1E08F0028CAD1CE
:102FF0003FE0206B216800780873206B401C206341
:10300000E08E401EE0862EE02068816889070FD59B
:10301000E18E69B1B9F1010F0AD1216B0978017311
:10302000206B401C2063E08E401EE0864FF00009BC
:1030300020688168C9070CD0E18F51B1C068A16BCD
:103040000870A06B401CA063E08F401EE0874FF02B
:103050000109FEF783FFA0EB0800B04202D3701C09
:1030600001D010E07EB1E08E0028CDD1E08F0028A5
:10307000CAD142463146204601F0BAFA28B10127AA
:103080002020606507E0032705E0A06818B92068E4
:10309000C16880680090012084F85100002084F805
:1030A000500038462CE710B5401EB0F1807F01D3A8
:1030B000012010BD4FF0E02460610F21601702F085
:1030C0009FFF0020A06107202061002010BD7047F5
:1030D0007047000070B590F83C20012A32D00124DE
:1030E00080F83C40022280F83D2003685A689D68C1
:1030F00022F070060A6832435A60134B02689A4203
:1031000014D0B2F1804F11D0104B9A420ED0104B18
:103110009A420BD00F4B9A4208D00F4B9A4205D0DF
:103120000E4B9A4202D00E4B9A4204D1496825F0C8
:1031300080031943916080F83D40002180F83C10E5
:10314000084670BD022070BD000001400004004030
:1031500000080040000C0040000401400040014015
:103160000018004010B5040003D094F83D0010B1E1
:1031700007E0012010BD002084F83C00204600F04C
:103180000DF8022084F83D00211D206801F044FB69
:10319000012084F83D00002010BD000008B5264A3B
:1031A00001682648914216D1016841F00101016091
:1031B0000068002200F00100009005211820FEF7B1
:1031C0003FFF1820FEF72EFF002205211920FEF7F1
:1031D00037FF19202AE01A4A914216D1016841F0BE
:1031E000020101600068002200F002000090052149
:1031F0002B20FEF725FF2B20FEF714FF00220521D0
:103200002C20FEF71DFF2C2010E00E4A914211D118
:10321000016841F4803101600068002200F48030D0
:10322000009005211820FEF70BFF1820BDE808408C
:10323000FEF7F8BE08BD000000000140443802401F
:10324000000401400040014070B5044690F83C0085
:10325000012817D0012584F83C50022084F83D0055
:103260002068826822F0770222F47F428260086838
:10327000502830D00DDC20284DD005DC98B3102824
:103280003BD148E0022070BD302844D0402834D1E2
:1032900039E0602828D0702806D0B0F5805F2CD0A7
:1032A000B0F5005F29D10AE0CB68D1E9012120689F
:1032B00001F016FB2068816841F0770109E0CB68D6
:1032C000D1E90121206801F00BFB2068816841F4FD
:1032D0008041816011E0CA684968206801F0D4FB30
:1032E0005021206807E016E0CA684968206801F0AC
:1032F000DCFB6021206801F0FDFA84F83D500020DD
:1033000084F83C0070BDCA684968206801F0BCFBC5
:1033100040212068EFE7226801461046EBE770473E
:1033200070B50446006801694FF00005C94389077C
:1033300015D4C168C943890711D4E91E0161012070
:103340002077206880698007204602D0FFF7E7FFDA
:1033500004E000F0C1F8204600F056F92577206817
:103360000169C943490717D4C168C943490713D440
:103370006FF004010161022020772068806910F459
:10338000407F204602D0FFF7CAFF04E000F0A4F817
:10339000204600F039F9257720680169C9430907FB
:1033A00016D4C168C943090712D46FF0080101613E
:1033B000042020772068C0698007204602D0FFF7EC
:1033C000AEFF04E000F088F8204600F01DF92577F4
:1033D00020680169C943C90617D4C168C943C90631
:1033E00013D46FF010010161082020772068C069B4
:1033F00010F4407F204602D0FFF791FF04E000F078
:103400006BF8204600F000F9257720680169C94370
:10341000C90708D1C168C943C90704D1891E016120
:10342000204600F0F2F820680169C943090609D472
:10343000C168C943090605D46FF0800101612046C7
:10344000FFF745FE20680169C943490609D4C168F0
:10345000C943490605D46FF040010161204600F0E0
:10346000DBF820680169C94389060BD4C168C943E8
:10347000890607D46FF0200101612046BDE8704045
:10348000FFF726BE70BD000010B586B004461421BB
:103490006846FDF74FF80D492068884214D10C4862
:1034A0000021026842F002020260006800F002009F
:1034B0000590202000900220CDE90101CDE9031004
:1034C00069460448FEF770FC06B010BD00040040D9
:1034D0003038024000040240704770B5044690F84E
:1034E0003C000D4601280DD0012684F83C600220E6
:1034F00084F83D0042B1042A18D0082A2AD00C2AA8
:103500004DD139E0022070BD206801F0FBF9206840
:10351000816941F0080181612068816921F004011D
:103520008161206881692A69114311E0206801F0F6
:1035300019FA2068816941F400618161206881691C
:1035400021F480618161206881692A6941EA022150
:10355000816124E0206801F03BFA2068C16941F0F4
:103560000801C1612068C16921F00401C1612068BE
:10357000C1692A69114311E0206801F05DFA2068F1
:10358000C16941F40061C1612068C16921F48061B1
:10359000C1612068C1692A6941EA0221C16184F8D8
:1035A0003D60002084F83C0070BD10B5040003D0DD
:1035B00094F83D0010B107E0012010BD002084F810
:1035C0003C00204600F00CF8022084F83D00211D4C
:1035D000206801F021F9012084F83D00002010BD91
:1035E00008B500680649884208D10648016841F0DC
:1035F00002010160006800F00200009008BD0000B8
:10360000000400404038024070470068B0F1804F2D
:1036100001D1FEF7A9BC7047704738B5044690F851
:103620003E00202822D181B17AB194F83C000128D3
:103630001CD0012084F83C002063204601F0E4FB0C
:10364000002803D1216B012901D0012038BD216858
:103650000A684968009121680C3151E8002F42F056
:10366000100241E80023002BF5D138BD022038BDFF
:1036700070B50E4618490024164D097826E000BFA3
:1036800055F82420D2F8002182421DD155F824009B
:10369000D0F8040128B1804755F824003146FCF7E2
:1036A00049FF55F8241091F8FF20D1F80001FFF7E9
:1036B000B4FF55F82400D0F80001806B0068016861
:1036C00021F00801016070BD641CE4B28C42D7D3C4
:1036D00070BD0000BC4E0020D000002070B5124923
:1036E0000024104D09781AE055F82420D2F8002162
:1036F000824212D155F8241091F8FF20D1F8000130
:10370000FFF78BFF55F82400D0F80001806B0068AC
:10371000016821F00801016070BD641CE4B28C42B4
:10372000E2D370BDBC4E0020D0000020F8B5016887
:1037300004460868CA684B6910F00F0F4FF0000587
:1037400059D003F0010602F49077374365D0C107E2
:1037500005D0D10503D5216C41F001012164410759
:1037600005D5D90703D0216C41F0020121648107FE
:1037700005D5D90703D0216C41F00401216401076C
:1037800007D502F02001314303D0216C41F008013C
:103790002164216C00293AD0800604D5900602D518
:1037A000204601F04BFA20684069216CC0F380107C
:1037B000090700D460B3204601F00BFA2068406985
:1037C000400621D52068143050E8001F21F0400148
:1037D00040E80012002AF5D1A06BA8B16C49016540
:1037E000A06BFEF75CF9002811D0A06B016D01B051
:1037F000BDE8F040084783060FD593060DD5204657
:10380000BDE8F84001F01ABA2046FFF767FFF8BD9F
:103810002046FFF763FF2564F8BD266B2023012EA9
:1038200079D1C60677D5D60675D508684868009060
:103830004869400640D5A16B086840680004000C48
:10384000EAD0A28D8242E7D9E085C869B0F5807FD1
:103850002DD020680C3050E8001F21F4807140E822
:103860000012002AF5D12068143050E8001F21F022
:10387000010140E80012002AF5D12068143050E818
:10388000001F21F0400140E80012002AF5D184F821
:103890003E30256320680C3050E8001F21F01001F5
:1038A00040E80012002AF5D1A06BFEF7B1F8A08D18
:1038B000E18D401A81B229E0A08DE18D401A81B2DC
:1038C000E08D0028A8D00029A6D020680C3050E850
:1038D000002F22F4907240E80026002EF5D12068D7
:1038E000143050E8002F22F0010240E80026002E9C
:1038F000F5D184F83E30256320680C3050E8002F65
:1039000022F0100240E80023002BF5D12046FFF7FB
:10391000AFFEF8BDFFE705062BD5150629D594F8AF
:103920003D002128F5D1A068B0F5805F01D1206964
:10393000B0B1206A411C2162216800784860E08CA7
:10394000401E0004000CE084E3D12068C16821F02F
:103950008001C1602068C16841F04001C160D8E7C2
:10396000206A0088C0F308004860206A801C20623A
:10397000E5E74006CDD55006CBD5CA68204622F0F3
:103980004002CA6084F83D3000F0D6F9C1E700007B
:10399000DD4A000870B5040004D094F83D0000250D
:1039A00010B106E0012070BD84F83C50204600F0C4
:1039B00023F8242084F83D002068C16821F40051D8
:1039C000C160204601F09AF92068016921F4904114
:1039D00001612068416921F02A0141612068C168C4
:1039E00041F40051C1602564202084F83D0084F832
:1039F0003E00002070BD00002DE9F04F87B0054665
:103A000014216846FCF796FDBE48BD4B10380322D2
:103A1000D5F800C0DFF8ECE20221DFF8ECB20024B8
:103A2000061517044FF0400A4FF000699C4569D114
:103A3000DEF800C04CF4801CCEF800C0DEF8003088
:103A400003F480130593036843F0040303600368E1
:103A500003F004030593036843F008030360006860
:103A60004FF0080800F008000590C80200900220FE
:103A7000CDE901040320CDE9030869465846FEF765
:103A800093F9042000900220CDE901040320CDE940
:103A9000030869469D48FEF787F9DFF878829C495C
:103AA0004046C8F80010C0E90194C0E90346C8F8D0
:103AB0001440C8F81840C8E90747C8F82440FEF782
:103AC000D1F808B1FDF702FC924FC5F83880603795
:103AD000C8F83850C7E903468D487C61A830BC61FE
:103AE00087E801064FF40030C7E9074038467C629A
:103AF000FEF7B8F808B1FDF7E9FB6F63BD6307B0E7
:103B0000BDE8F08F7F4BDFF810821B1DC44552D1FA
:103B1000D3F800C0A0464CF0100CC3F800C01B68DE
:103B200003F010030593036843F00103036000688A
:103B300000F0010005904FF4C0608DE813000720ED
:103B4000CDE9032069467548FEF72EF9DFF8C4B1C8
:103B500073490BF1C00B5846CBF80010C0E9019433
:103B6000C0E90346CBF81440CBF81840CBE907472F
:103B7000CBF82440FEF776F808B1FDF7A7FB6848BC
:103B8000684CC5F838B07830CBF8385084E8010676
:103B9000C4E90386C4F81480C4F81880C4E9078710
:103BA0002046C4F82480FEF75DF808B1FDF78EFBCF
:103BB0006C63A563A3E7DFF87081C4453CD1DEF8F0
:103BC00000C04CF4802CCEF800C0DEF8003003F4C6
:103BD00080230593036843F004030360006800F04A
:103BE000040005904FF484608DE813000720CDE9B0
:103BF000032069465846FEF7D7F8DFF82881444984
:103C000008F1600818314046C8F80010C0E9019476
:103C1000C0E90346C8F81440C8F81840C8E9074787
:103C2000C8F82440FEF71EF808B1FDF74FFBC5F8B1
:103C30003880C8F8385062E7DFF8F080C445B9D161
:103C4000D3F800C0A0464CF0200CC3F800C01B689D
:103C500003F020030593036843F004030360006846
:103C600000F004000590C0208DE813000820CDE985
:103C7000032069465846FEF797F8DFF8A8902849D0
:103C800009F1C009183948464FF0206BC9F80010F7
:103C9000C0E901B4C0E90346C9F81440C9F81840A6
:103CA000C9E90747C9F82440FDF7DCFF08B1FDF773
:103CB0000DFB1F4CC5F838901948C9F838506030D2
:103CC000C4F808A0C4E9000BC4E90386C4F8148052
:103CD000C4F81880C4E907872046C4F82480FDF79B
:103CE000C1FF08B1FDF7F2FA6C63002205214720FD
:103CF000A563FEF7A5F94720FEF794F9FFE600005B
:103D0000005000404038024000080240000C0240D1
:103D10001060024004090020001001400000024031
:103D200040640240240A0020004800400014014082
:103D3000440B0020704770477047FEE70F4810B5EE
:103D40000D4901600221416000214FF46022816031
:103D5000C0E903124FF48002426101764176817618
:103D6000C17601774177FDF792FC002803D0BDE8CA
:103D70001040FDF7ABBA10BD00640040F80200200F
:103D80000F4810B50D4901600221416000214FF438
:103D900060228160C0E903124FF480024261017623
:103DA00041768176C17601774177FDF770FC002876
:103DB00003D0BDE81040FDF789BA10BD006800408F
:103DC000200300201D4808B5016841F4001101607E
:103DD000016801F400110091016841F48001016063
:103DE0000068002200F48000009005210C20FEF7FE
:103DF00027F90C20FEF716F9002205210E20FEF708
:103E00001FF90E20FEF70EF9002205210F20FEF704
:103E100017F90F20FEF706F9002205213920FEF7D9
:103E20000FF93920FEF7FEF8002205214520FEF7A4
:103E300007F9BDE808404520FEF7F4B830380240E5
:103E400010B5AAB01C2221496846FCF741FB0021AD
:103E5000684604F069FF1E4C1C491C2220601C317E
:103E600007A8FCF735FB002107A804F05DFF174900
:103E700060601C2238310EA8FCF72AFB00210EA836
:103E800004F052FF1149A0601C22543115A8FCF720
:103E90001FFB002115A804F047FF0C49E0601C221D
:103EA00070311CA8FCF714FB00211CA804F03CFF97
:103EB000064920611C228C3123A8FCF709FB002154
:103EC00023A804F031FF60612AB010BD2CA80008BF
:103ED000040000202DE9F04186B014216846FCF76B
:103EE00029FB2F480024016841F0040101600168AA
:103EF00001F004010591016841F080010160016851
:103F000001F080010591016841F002010160016842
:103F100001F002010591016841F0010101600168B1
:103F200001F001010591016841F00801016000689C
:103F30001C4F00F0080042F21105059000222946AE
:103F40003846FEF705F8DFF860800022032140467E
:103F5000FDF7FEFF00950125CDE90154694638467D
:103F60000394FDF721FF114E0420CDE900066946B8
:103F700002943846FDF718FF0820CDE9000669468F
:103F800002953846FDF710FF03200090CDE901545B
:103F9000694640460394FDF707FF06B0BDE8F0818F
:103FA00030380240000802400004024000001110B6
:103FB000104810B50E4901604FF482714160002134
:103FC00002228160C0E90312012242615202826131
:103FD0003022C0E90721416281620A21C162FEF7F5
:103FE000C9FE002803D0BDE81040FDF76FB910BD31
:103FF000003800409C05002010B586B00024184809
:10400000009401940294039404941449059401606B
:1040100044F29F11C0E9011442F20F71C0E9031488
:1040200044618461FFF79EF808B1FDF74FF94FF442
:104030008050009069460A48FFF706F908B1FDF77D
:1040400045F9049404A906480594FFF743F80028AD
:1040500001D0FDF73BF906B010BD000000000140A3
:10406000B406002010B58AB0002407941C216846CD
:104070000894FCF75FFA16481449C0E9001441F2AD
:104080008731C0E9024104618461FFF78EFA08B10B
:10409000FDF71CF9079407A90D480894FFF71AF8D3
:1040A00008B1FDF713F96020CDE900040294042261
:1040B000694607480494FFF710FA08B1FDF706F9BE
:1040C0000348FFF7E1F90AB010BD0000000400400A
:1040D000F406002010B586B000241748009401941F
:1040E00002940394049413490594C0E900144FF614
:1040F000FF71C0E90241046144618461FFF732F855
:1041000008B1FDF7E3F84FF48050009069460A4883
:10411000FFF79AF808B1FDF7D9F8049404A9064806
:104120000594FEF7D7FF002801D0FDF7CFF806B0C1
:1041300010BD000000040140340700201FB500211D
:1041400010480091019102910D4A0391026044F2DE
:104150009F12C0E901216322C0E903218161FFF7B9
:1041600001F808B1FDF7B2F84FF4805000906946AD
:104170000448FFF769F8002801D0FDF7A7F81FBD34
:1041800000400140740700200C4810B50A49016046
:104190004FF4E1314160002181600C22C160C0E92F
:1041A00004128161C161FFF7F5FB002803D0BDE86F
:1041B0001040FDF78BB810BD00500040F407002000
:1041C0000C4810B50A4901604FF4E131416000210B
:1041D00081600C22C160C0E904128161C161FFF7F6
:1041E000D9FB002803D0BDE81040FDF76FB810BD23
:1041F00000100140380800200C4810B50A49016041
:104200000B494160002181600C22C160C0E90412A9
:104210008161C161FFF7BEFB002803D0BDE81040FB
:10422000FDF754B810BD0000004800407C08002095
:10423000A08601000C4810B50A4901604FF4E13135
:104240004160002181600C22C160C0E904128161DB
:10425000C161FFF79FFB002803D0BDE81040FDF7C8
:1042600035B810BD00140140C0080020FEE7000072
:1042700070B5044600202DED028B02464FEA010581
:1042800034F91010002934F9101000DC494209B249
:10429000914200DD0A46401CC0B20428F0D3AA4275
:1042A00022DD104605F065FF41EC180B284605F0AD
:1042B00060FF53EC182B05F099FD05F0B1FC00EE02
:1042C000100A002034F9101000EE901AF8EEE00AFF
:1042D00060EE800AFDEEE00A10EE901A24F810104D
:1042E000401CC0B20428EDD3BDEC028B70BDFEE7CC
:1042F0000148FDF7FFBF0000C40D00202DE9F0418B
:1043000003680D4604461E6C03EB4511D1F8080BFB
:10431000D4F810E04FF400474FF0200C04F5717210
:10432000BEF1010F09D0DFF898E0764539D10204DB
:1043300032D500BFC1F8087B3FE0224B5FEA007E28
:1043400004D59E4239D90004F4D436E05FEA806E89
:1043500002D5C1F808CB30E010F0280F2DD19E42D5
:1043600001D90004E6D4C5EBC50004EB8000D1F808
:10437000101BD0F80432C1F31201591AC0F81412FC
:10438000D0F808121944C0F8081295B9D4F81002F0
:1043900078B9012120680AE080060AD5C1F808CB67
:1043A00007E035B9D4F8100218B90021184601F019
:1043B0008FFBE9B22046FDF7B2FE0020BDE8F08198
:1043C0000A31544F0A30544F2DE9F84F0E46C1EBD5
:1043D000C60100EB810481460568D4E914103C3421
:1043E000884202D90120BDE8F88F081AA1688142ED
:1043F00000D20846C01C870805EB46181BE000BF2A
:10440000A0EB010AA068504500D282460AF10300E1
:10441000870899F8100000901FFA8AF3F2B2284634
:10442000E16801F0AFFDE16801EB0A00E060A1691D
:1044300001EB0A00A061D8F8180980B2B84205D390
:10444000D4E90501814201D20028D9D1D4E905017E
:10445000884208D806F00F0101208840D5F83418AA
:104460008143C5F834180020BDE70000A0B1D0EDAD
:10447000101AC0ED111A90ED0F1A80ED101AC0ED50
:10448000060A80ED070A30EEC00A80ED0F0A0178B7
:1044900029B101293BD078E09FED3D0A7047D0ED6E
:1044A000010A60EE801AC0ED091AD0ED0A0A90EDFB
:1044B000022A42EE000A30EE410AC0ED0A0A90EDEF
:1044C0000D2A80ED0E2A90ED0C2A80ED0D2A80ED4C
:1044D0000C0A90ED031A21EE001A80ED0B1A90EDF4
:1044E000050AF4EEC00AF1EE10FA09DCB1EE400A5A
:1044F000F4EEC00AF1EE10FA02D390ED0A0A01E0E0
:1045000080ED0A0A31EE800A30EE010A2BE070EEEF
:10451000410A90ED012A20EE822A80ED092AD0ED91
:10452000020A60EE800AC0ED0A0AD0ED0D2A72EE92
:10453000200AC0ED0E2AD0ED0C2AC0ED0D2AF0EEB7
:10454000002A01EE620A30EE210A80ED0C0A90ED9D
:10455000031A21EE000A80ED0B0A30EE800AD0ED3E
:10456000080A30EE200A80ED080AD0ED040AB4EE05
:10457000E00AF1EE10FA06DCF1EE600AB4EEE00AB1
:10458000F1EE10FA01D2C0ED080A90ED080A70476A
:1045900000000000002828D0002A26D0017092EDEB
:1045A000001A80ED011A92ED011A80ED021A92EDC7
:1045B000021A80ED031A80ED040A9FED0C0AC0ED8B
:1045C000050A80ED0E0A80ED0D0A80ED0C0A80EDE3
:1045D000080A80ED0B0A80ED0A0A80ED090A80EDD9
:1045E000110A80ED100A80ED0F0A704700000000EC
:1045F00038B504461248134B0068B0FBF3F04FF493
:104600007A73584300906068B0F5827F0DD10B46F5
:10461000009200228021204600F016F870B1606DF3
:1046200040F020006065032038BD009830B1401E86
:10463000009020688068C0430006F6D5002038BD91
:104640001C00002000366E012DE9F0411D46174682
:104650000E460446DDF8188008E0681C06D0FDF719
:104660007DFCA0EB0800A8420BD255B12068806801
:1046700036EA000030D00020B842EED10020BDE87C
:10468000F0812068416821F0E00141606068B0F588
:10469000827F0BD1A068B0F5004F02D0B0F5806FDB
:1046A00004D12068016821F040010160A06AB0F5E2
:1046B000005F09D12068016821F400510160206881
:1046C000016841F400510160012084F8510000208C
:1046D00084F850000320D2E70120CDE7012004F048
:1046E00017FBFBE7012004F013FBFBE710B550209C
:1046F00080F31188BFF34F8FBFF36F8F05F072F90E
:1047000018B104494FF080500860002080F31188F0
:1047100010BD000004ED00E030B593B034216846D0
:10472000FBF708FF14210DA8FBF704FF1E48002526
:10473000016841F080510160006800F080501290E3
:104740001A48016841F4404101600068022400F405
:104750004040129001200090000401908001CDE9BA
:10476000064006200890A820CDE909040720CDE9DD
:104770000B046846FEF75CF908B172B6FEE70DA9B6
:104780000F2081E831004FF4A05010904FF480507A
:10479000119005210DA8FEF73FF8002801D072B650
:1047A000FEE713B030BD000040380240007000400A
:1047B0000548016841F47001016003494FF0006051
:1047C000803908607047000088ED00E010B50448AB
:1047D000FEF7A6FDBDE810400248FEF7A1BD0000AF
:1047E000B4060020740700200148FEF799BD0000C0
:1047F000B40600200148FEF793BD0000B407002076
:104800000148FEF78DBD0000340700200148FEF787
:1048100087BD000034070020F0B50268254C264D06
:10482000264E274F274B4FF0804CA04209D06045C1
:1048300007D0A84205D0B04203D0B84201D0984278
:1048400004D122F0700E4A6842EA0E02A0421BD048
:10485000604519D0A84217D0B04215D0B84213D045
:10486000984211D0184DA8420ED0184DA8420BD036
:10487000174DA84208D0174DA84205D0164DA842A2
:1048800002D0164DA84203D122F44075CA682A43CB
:104890004D6922F080022A4302608A68C2620A6877
:1048A0008262A04201D0984201D1096901630121CD
:1048B0004161F0BD000001400004004000080040DC
:1048C000000C004000040140004001400044014051
:1048D0000048014000180040001C0040002000403B
:1048E00010B5846842EA032224F47F440A43224339
:1048F000826010BD826822F070020A4342F0070114
:1049000081607047F0B5026A22F001020262036A18
:1049100042688469124E24F073050C682C4323F01E
:1049200002058B682B430D4DA84201D0B04205D142
:1049300023F00807CB683B4323F00403A84201D0CF
:10494000B04205D14D6922F4407215438A692A4369
:1049500042608461496841630362F0BD0000014028
:1049600000040140F0B5026A22F010020262026AFD
:10497000436884690D6824F4E64444EA05248D689C
:1049800022F0200242EA05120F4D104EA84201D03B
:10499000B04206D1CF6822F0800242EA071222F02C
:1049A0004002A84201D0B04207D14D6923F44063D0
:1049B00043EA85038D6943EA85034360846149685E
:1049C00081630262F0BD000000000140000401406C
:1049D000F0B5026A22F480720262026A4368C46916
:1049E00022F4007224F073050C68124E2C438D687B
:1049F00042EA05220E4DA84201D0B04206D1CF684E
:104A000022F4006242EA072222F48062A84201D026
:104A1000B04207D14D6923F4405343EA05138D6931
:104A200043EA05134360C4614968C1630262F0BD93
:104A3000000001400004014030B5026A22F48052B7
:104A40000262046A4268C3690D6823F4E64343EADC
:104A500005238D6824F4005444EA0534084DA84227
:104A600002D0084DA84204D14D6922F4804242EAA6
:104A700085124260C36149680164046230BD000070
:104A8000000001400004014010B5036A046A24F0EC
:104A900001040462846924F0F00444EA021423F05F
:104AA0000A020A438461026210BD10B5036A23F052
:104AB000100303628369046A23F4704343EA0232F9
:104AC00024F0A00343EA01118261016210BD0000DD
:104AD0000148FEF72BBE0000F407002010B5806BE4
:104AE0000021C185C184FEF7F9FD10BD70B5846B4E
:104AF0002068406994F83D10C0F3C01000252129BA
:104B000004D118B1E584204600F08AF82068406995
:104B100094F83E10C0F38010222904D118B1E58525
:104B2000204600F056F8206C40F01000206420462B
:104B3000FEF7D4FD70BD10B50146806B09680968A9
:104B4000C9052FD40021C18501680C3151E8002F1F
:104B500022F4807241E80023002BF5D10168143162
:104B600051E8002F22F0010241E80023002BF5D18B
:104B70000168143151E8002F22F0400241E800237F
:104B8000002BF5D1202180F83E10016B012909D1BD
:104B900001680C3151E8002F22F0100241E8002397
:104BA000002BF5D1016B012902D0FFF7C3F810BD2E
:104BB000818DFEF75DFD10BD10B5806B016B012985
:104BC00002D0FFF7B8F810BD818D4908FEF750FDFF
:104BD00010BD01680C3151E8002F22F4907241E8B9
:104BE0000023002BF5D10168143151E8002F22F089
:104BF000010241E80023002BF5D1016B012909D105
:104C000001680C3151E8002F22F0100241E8002326
:104C1000002BF5D1202180F83E1000210163704760
:104C200001680C3151E8002F22F0C00241E8002356
:104C3000002BF5D1202180F83D10704708B590F881
:104C40003E10222901D0022008BD82684FF4805313
:104C50009A4201D1016921B1816A9A421BD04AB1BD
:104C60000AE00268816A5268C2F308020A80816A17
:104C7000891C08E0026972B10268526802F07F0282
:104C80000A70816A491C8162C18D491E0904090CA0
:104C9000C18503D019E002685268F1E70168CA686B
:104CA00022F02002CA600168CA6822F48072CA60D9
:104CB00001684A6922F001024A61202180F83E1011
:104CC000016B012903D0FFF735F8002008BD002152
:104CD000016301680C3151E8002F22F0100241E815
:104CE0000023002BF5D101680A68D20602D50A68B4
:104CF00049680091818DFEF7BBFCE6E770B504467C
:104D000000680169E26821F44051114301612169A1
:104D1000A068E26908436169114308432168CA68D1
:104D200049F20C639A430243CA6020684169A26950
:104D300021F440711143416131492068884202D019
:104D40003049884202D1FDF717FE01E0FDF704FE6D
:104D5000E2690023192164253226B2F5004F62680A
:104D600028D0A0FB0101930F9200FBF71BFB01462B
:104D7000B0FBF5F06FF01802504301EB800006EB3A
:104D80000010B0FBF5F000F0F002B1FBF5F002EB23
:104D90000012B1FBF5F06FF01803584301EB8000EF
:104DA00006EB0010B0FBF5F000F00F002168104496
:104DB000886070BDA0FB010192185B41FBF7F2FA1D
:104DC0000146B0FBF5F00201B1FBF5F06FF01803FE
:104DD000584301EB800006EBC000B0FBF5F000F09B
:104DE000F80002EB4002B1FBF5F0584301EB800004
:104DF00006EBC000B0FBF5F000F00700D6E70000BE
:104E0000001001400014014038B581628285002500
:104E1000134604460564222084F83E00A26B1C4819
:104E2000D063A26B1B481064A26B1B48D064A06BBC
:104E30000A4605652168A06B091DFCF77DFF206807
:104E400001684068009084F83C50206948B12068AF
:104E50000C3050E8001F41F4807140E80012002A35
:104E6000F5D12068143050E8001F41F0010140E8FE
:104E70000012002AF5D12068143050E8001F41F0DC
:104E8000400140E80012002AF5D1002038BD0000A2
:104E9000374B0008B94B0008ED4A00080148FEF7FF
:104EA00045BC00007C0800200148FEF73FBC000024
:104EB000C008002010B5D0F8B822002A01D05268EE
:104EC0009047002010BD90F89C22012A05D0022AAC
:104ED00003D0032A01D000F019B84988012904D170
:104EE0000021C0F8A41200F035B8704710B5134681
:104EF0000A46002100F03EFA002010BD10B513460E
:104F00000A46002100F0CFFA002010BD10B504467B
:104F10008021204600F0B5FA2046BDE8104000216F
:104F200000F0AFBA10B50521C0F8941200231A465C
:104F3000194600F01FFA002010BD10B50223C0F87A
:104F400094328261C26113460A46002100F0ABFA36
:104F5000002010BD10B50421C0F8941200231A4699
:104F6000194600F0A0FA002010BDCA88012A01D01D
:104F7000FFF7CCBF90F89C22012A05D0022A03D06B
:104F8000032A08D0FFF7C2BF00218160012200F18F
:104F90000801FFF7D2BF0122011DFFF7CEBF2DE9A7
:104FA000F84304460F46002000900026002579882B
:104FB000080A062871D006DC012830D0022836D035
:104FC000032804D149E0072868D00F2818D03946B3
:104FD0002046FFF79BFF0125002D0FD1FA88002AFC
:104FE00000F0CC80BDF80000002876D0824200D9C5
:104FF0000246009231462046FFF79FFFBDE8F88346
:10500000D4F8B402C26922B1207C694690470646B2
:10501000E2E739462046FFF779FF0125DCE7D4F8BF
:10502000B412207C0A68694690470646D4E7207C83
:105030004FF0020840B1D4F8B802C16A6846884708
:10504000064686F80180C7E7D4F8B802816A684648
:105050008847064686F80180BEE7C8B2062861D2B6
:10506000DFE800F0031223324251D4F8B402426860
:1050700022B1207C694690470646ADE73946204676
:10508000FFF744FF0125A7E7D4F8B402826832B1E4
:10509000207C6946904706469EE749E057E039463E
:1050A0002046FFF733FF012596E7D4F8B402C26823
:1050B00022B1207C6946904706468DE73946204656
:1050C000FFF724FF012587E7D4F8B40202692AB16B
:1050D000207C6946904706467EE749E039462046EF
:1050E000FFF714FF012577E7D4F8B402426922B133
:1050F000207C6946904706466EE739462046FFF712
:1051000005FF012568E7D4F8B402826922B1207C4A
:105110006946904706465FE739462046FFF7F6FEA8
:10512000012559E739462046FFF7F0FE012553E7F0
:10513000207C28B139462046FFF7E8FE01254BE7E1
:10514000D4F8B802416B68468847064644E7207C9D
:1051500028B139462046FFF7D9FE01253CE7D4F8AF
:10516000B802016B6846884706460721717033E72D
:1051700039462046FFF7CAFEBDE8F8832046FFF710
:10518000E9FEBDE8F88390F89C22012A05D0022AA6
:1051900003D0032A01D0FFF7B9BECA88022A01D082
:1051A000FFF7B4BE0121C160D0F8A41209B10321F8
:1051B000C160022200F10C01FFF7BFBE01004FF0F9
:1051C000000004D0012901D0022901D0032070473A
:1051D0000120704710B5D0F8C402FCF7AEFFBDE85F
:1051E0001040FFF7EBBF70B504461346002909D005
:1051F000D4F8B80242691AB194F89C0203284BD043
:10520000032070BD04F11400D4F894120025022983
:1052100038D18268C1688A420CD9521A8260194614
:105220002046FFF76BFE00231A461946204600F081
:10523000A1F827E0914214D14068884211D3D4F8F4
:10524000981288420DD2002211462046FFF756FEE2
:10525000C4F8985200231A461946204600F08AF8EE
:1052600010E0D4F8B802C16829B194F89C02032870
:1052700001D1204688478021204600F002F92046CF
:10528000FFF750FE94F8A002012809D1204600F053
:105290002CF984F8A05203E0204690470028B0D1B2
:1052A000002070BD10B5044608461146002809D0FC
:1052B000D4F8B8128A691AB194F89C12032923D041
:1052C000032010BD04F5AA70D4F89422032A20D13B
:1052D0008368C268934209D99A1A8260C068824280
:1052E00000D302462046FFF701FE12E0D4F8B802D0
:1052F000016929B194F89C02032801D1204688470E
:105300002046FFF727FE04E001462046904700288C
:10531000D7D1002010BD0020704710B5012180F8C2
:105320009C12D0F8B822002A02D052680179904726
:10533000002010BD0A0601F07F01D0F8C402C1EBC5
:10534000C10100EB810002D590F83E00704790F853
:10535000FE017047002070470020704710B51C46C2
:105360001346D0F8C4022246FCF715FFBDE81040F2
:10537000FFF724BF10B5D0F8C402FCF73CFFBDE82E
:105380001040FFF71BBF70B50446012584F89C52FE
:105390000020C4F894026060C4F8A402D4F8BC02EF
:1053A000002805D0D4F8B802002142682046904772
:1053B0000022402311462046FFF7D0FFA4F8645195
:1053C0004026C4F860614023002280212046FFF778
:1053D000C5FFA5842662002070BD90F89C120429A8
:1053E00003D190F89D1280F89C120020704710B5F0
:1053F00090F89C12032904D1D0F8B812C96901B100
:105400008847002010BD01740020704710B5D0F807
:10541000C402FDF7CDF9BDE81040FFF7CFBE10B5CF
:10542000044604F2AA2000F047F80120C4F89402D0
:10543000B4F8B002C4F8980294F8AA1211F01F0050
:105440000AD001280FD0022814D02046BDE8104011
:1054500001F0800100F015B804F2AA212046BDE851
:10546000104000F0EFB804F2AA212046BDE8104039
:1054700000F01DBA04F2AA212046BDE8104000F059
:1054800023B910B5D0F8C402FCF7D9FEBDE810402E
:10549000FFF794BE90F89C1280F89D12042180F8CA
:1054A0009C120020704710B5D0F8C402FCF701FF31
:1054B000BDE81040FFF782BE0A780270491C0A78E6
:1054C0004270491C0A784B1C1B7842EA0322428036
:1054D000891C0A784B1C1B7842EA032282808A7856
:1054E000C97842EA0121C18070470020704770B539
:1054F00004468888002821D1C888F8B948888028BF
:105500001CD200F07F0594F89C0203280DD084F88B
:105510009E5229462046FFF779FF2046FFF71AFDE5
:1055200045B1022084F89C0270BD2046BDE8704061
:10553000FFF7ECBC012084F89C0270BD2046BDE85A
:105540007040FFF7E3BC03460320D3F8B822002ADB
:1055500002D0126818461047704700002DE9F0414C
:1055600004460E460025324FB1783970012906D91C
:1055700031462046FFF7CAFC0320BDE8F08194F8CD
:105580009C0202280DD0032823D031462046FFF785
:10559000BDFC39782046FFF78DFC03252846BDE881
:1055A000F08191B161602046FFF7CDFF05462800EC
:1055B00004D031462046FFF7A9FCEFE72046FFF76D
:1055C000C9FC032084F89C02E8E72046FFF7C2FCF0
:1055D000E4E74FF00208C9B16068884224D0C1B244
:1055E0002046FFF767FC397861602046FFF7ABFF84
:1055F0000546280014D031462046FFF787FC217964
:105600002046FFF757FC84F89C82C7E784F89C8209
:1056100061602046FFF74EFC2046FFF79BFCBDE78C
:105620002046FFF797FCB9E72046FFF793FCB5E764
:105630008C0000204988012903D1C0F8A412FFF78B
:1056400089BC704710B503460024087810F060024A
:105650000FD0202A06D0402A04D01846FFF756FC67
:10566000204610BDD3F8B802826818469047044619
:10567000F6E748780A2823D2DFE800F0161E221A3F
:1056800022090522120D1846FFF789FCE8E71846A3
:10569000FFF72DFFE4E71846FFF760FF0446DFE75A
:1056A0001846FFF762FCDBE71846FFF76CFDD7E70B
:1056B0001846FFF7BFFFD3E71846FFF704FCCFE714
:1056C0001846FFF723FCCBE72DE9F04104460D46D1
:1056D00000262979287810F0600012D0202808D000
:1056E000402806D029462046FFF710FC3046BDE88A
:1056F000F081D4F8B80229468268204690470646D1
:10570000F4E7687800285FD001282FD0032804D060
:1057100029462046FFF7FAFBE8E794F89C020228A6
:1057200006D0032814D029462046FFF7EFFBDDE71B
:1057300049B1802907D02046FFF7A3FE80212046EB
:10574000FFF79FFED2E729462046FFF7DFFBCDE7B4
:10575000688838B931B1802904D0E88810B920466A
:10576000FFF78FFE2046FFF7F5FBBFE794F89C029A
:10577000022806D0032814D029462046FFF7C6FB8E
:10578000B4E749B1802907D02046FFF77AFE80218F
:105790002046FFF776FEA9E729462046FFF7B6FB2D
:1057A000A4E768880028A1D111F07F0F02D020461D
:1057B000FFF710FD2046FFF7CDFBD4F8B8022946CD
:1057C00082682046904791E794F89C0200270228BF
:1057D00006D0032826D029462046FFF797FB85E709
:1057E00031B1802904D029462046FFF78FFB7DE7A1
:1057F00011F0800F08D001F07F0000EB800004EB77
:10580000800000F1140107E001F07F0000EB800050
:1058100004EB800000F5AA710F6002222046FFF71A
:105820008CFB63E711F0800F0CD001F00F0000EB50
:10583000800004EB8000808C68B929462046FFF781
:1058400065FB53E701F00F0000EB800004EB8000E4
:10585000B0F8640158B111F0800F0DD001F07F0055
:1058600000EB800004EB800000F114050CE02946F9
:105870002046FFF74BFB39E701F07F0000EB80008B
:1058800004EB800000F5AA7541B1802906D02046BE
:10589000FFF750FD20B10120286002E02F6000E0FA
:1058A0002F60022229462046FFF747FB1EE770B50E
:1058B00005460C460026207810F0600209D0202A08
:1058C00007D0402A05D021462846FFF71FFB304667
:1058D00070BD95F89C22012A08D0022A06D0032A1E
:1058E00004D021462846FFF711FBF0E72079012874
:1058F0000FD8D5F8B8022146826828469047064658
:10590000E0880028E3D1002EE1D12846FFF722FBF2
:10591000DDE721462846FFF7F9FAD8E770B50A789F
:10592000012302F00F054E78AB401B4CD0F81C58F9
:10593000012E17D045EA0343C0F81C3800EB421093
:10594000D0F8002B12040BD4D0F8002B0B89C978A7
:10595000C3F30A031A4344EA81410A43C0F8002B07
:10596000002070BD9BB21D43C0F81C5800EB4210D4
:10597000D0F800391B04F3D4D0F800390D89C97868
:10598000C5F30A0589042B4341EA82510B432343A3
:10599000C0F80039E4E7000000800010D0F80019DA
:1059A0006FF30A01C0F80019D0F8041841F48071AF
:1059B000C0F804180020704770B50D784E78434C3D
:1059C000EBB200EB4313012E1FD0D3F8100B6FF393
:1059D0001200C3F8100BD3F8100B2040C3F8100BC3
:1059E000486908B188684861D3F8100B40F400207A
:1059F000C3F8100BD3F8100B8C68C4F312042043C7
:105A0000C3F8100B012A55D058E04E69002ED3F888
:105A1000106932D06FF31206C3F81069D3F8106919
:105A20002640C3F810694E698C68A64200D94C61C3
:105A3000D3F8104944F40024C3F81049D3F81049AE
:105A40004E69C6F312063443C3F81049012A22D026
:105A500000EB4512D2F8003943F00443C2F8003994
:105A60004A6932B3D0F83428097801F00F030121D4
:105A700099400A43C0F8342826E02640C3F810694C
:105A8000D3F8104944F40024C3F81049D3F810495E
:105A90006FF31204D8E7096919B100EB4512C2F897
:105AA000141900EB4510D0F8001941F00441C0F87A
:105AB000001909E0C86808B1C3F8140BD3F8000B4B
:105AC00040F00440C3F8000B002070BDFFFF07E06A
:105AD00010B5036C134CA34203D9D0F8003B002B44
